:020000020000FC
:0200000025C019
:0200100082C0AC
:1000400057C03F065B4F666D7D077F6F0FEF0DBF9B
:1000500008E00EBF60E06093C1000CE007B903E068
:1000600008B9439842980FE004B910E015B90FEFB2
:100070000AB980E090E060E070E0A9E0B5E0E2E479
:10008000F0E0E80F84910E948300789440E002E061
:100090000093680003E000936C0078940E945E0077
:1000A0000E9469004436D1F744276A130E94740005
:1000B00060E07B130E94760070E0F0CF4398862FBB
:1000C000E2E4F0E0E80F849143988BB94398429AB8
:1000D00008954298972FE2E4F0E0E90F9491429856
:1000E0009BB94298439A08956395D8CF7395D6CF1C
:1000F0000F930FB70F9303E606BDA89A43950F9190
:100100000FBF0F91189555E055BD53E656BD51E010
:1001100000936E0008950F930FB70F9306B1309BB5
:1001200007C0319B13C000000F910FBF0F911895AE
:1001300024E600002A95E9F7309BFACF13951F308B
:1001400014F415B9F0CF10E015B9EDCF24E6000096
:100150002A95E9F7319BFACF1A95103012F015B9AC
:08016000E2CF1FE015B9DFCF6B
:00000001FF
