:020000020000FC
:0200000008C036
:1000100014C00FEF0DBF08E00EBF00E007B903E00A
:1000200008B90FE004B910E015B902E000936800C8
:1000300003E000936C007894FFCF0F930FB70F93FA
:1000400006B1F894309B08C0319B14C000000F919A
:100050000FBF0F917894189524E600002A95E9F7D0
:10006000309BFACF13951F3014F415B9EFCF10E081
:1000700015B9ECCF24E600002A95E9F7319BFACFB9
:100080001A95103012F015B9E1CF1FE015B9DECF87
:00000001FF
